:100000000C945D030C948E030C948E030C948E035D
:100010000C948E030C948E030C948E030C948E031C
:100020000C948E030C948E030C948E030C948E030C
:100030000C948E030C948E030C948E030C948E03FC
:100040000C948E030C94A44D0C948E030C948E038C
:100050000C94D24D0C948E030C948E030C94D04CC3
:100060000C948E030C949A4C0C94704C0C948E034C
:100070000C948E030C948E030C948E030C948E03BC
:100080000C94764D0C948E030C948E030C948E037A
:100090000C948E030C948E030C948E030C948E039C
:1000A0000C948E030C948E030C94484D0C948E0388
:1000B0000C948E030C948E030C948E030C941A4DA6
:1000C0000C948E030C948E030C948E030C948E036C
:1000D0000C948E030C948E030C948E030C948E035C
:1000E0000C948E030C94CA180C9404180C94D20629
:1000F0000C94090B0C94D0050C94BB110C94B7060E
:100100000C94D40A0C9492040C94B01E0C945306D4
:100110000C94AD080C943B210C9433210C9467058E
:100120000C94BA080C9435210C949D070C9401187A
:100130000C9423210C9410130C940D0A0C94252F6D
:100140000C942B210C946A110C949B040C94B10414
:100150000C9414180C948E110C94BE040C9456112B
:100160000C94B1110C9455050C9406130C942E08A4
:100170000C9484320C94325C0C94C5110C94CE0A0D
:100180000C9402470C94A4090C9406180C947A1150
:100190000C94C9460C94F70A0C9425070C9404059A
:1001A0000C943A050C9472110C94A4050C9404134D
:1001B0000C942D210C9408130C9400180C94C70572
:1001C0000C940B070C947D080C94E2050C947D05AF
:1001D0000C94E9320C94DC0A0C9412180C940C1850
:1001E0000C945E050C945F0A0C9451080C9408184A
:1001F0000C9470050C94FE120C9437080C94981112
:100200000C94E5040C94FC170C940A080C940F1839
:100210000C9419210C941F060C9431210C941C0889
:100220000C94B3090C94B1050C947C190C940A132A
:100230000C9413080C9409180C9403180C942C06B5
:100240000C9497050C943F210C94D80A0C94050B40
:100250000C9468070C9473450C94D5090C94D9112F
:100260000C9457460C94E30A0C94FE060C948307F6
:100270000C947A070C94EB070C9415130C94F1066C
:100280000C94B7070C945A080C9417210C940C1377
:100290000C948A080C94F8120C940B180C94DB063E
:1002A0000C9401080C94CB040C943B070C94130B96
:1002B0000C941F130C9447110C9477090C940D188F
:1002C0000C941F210C94DE070C941B460C94C4075D
:1002D0000C94F30A0C94C7090C9471070C948411C4
:1002E0000C9474080C944D070C9432070C945F071F
:1002F0000C948A050C9446060C94D1070C94A71113
:100300000C94BE050C9467080C94912F0C94C308B0
:100310000C940F0B0C9402180C9443050C941807C2
:100320000C9421210C9439210C949F2F0C943906A4
:100330000C940A180C9489040C945F1E0C942805E4
:100340000C946D060C9460110C94EB050C94AA07A8
:100350000C9444070C94C0060C94D8040C948D188B
:100360000C9440110C94010B0C941C4E0C94EE0454
:100370000C9487060C94EC480C9490070C9410187D
:100380000C94E00A0C94DD080C9407180C943D21A1
:100390000C94AE060C9427210C941F050C94940623
:1003A0000C9412060C942F210C947C040C944C0594
:1003B0000C941A130C9456070C9411180C944C11AD
:1003C0000C9441210C94A14A0C9405180C943721EB
:1003D0000C94F7040C9413180C94E4060C94C906BE
:1003E0000C94F8050C9405060C940E180C94D8186F
:1003F0000C9429210C94F8070C9431050C940E13DD
:100400000C9443210C9425080C94D0080C94A80457
:100410000C9428180C941D210C94F21D0C94970830
:100420000C94A0080C94ED0A0C9490460C940E0BBE
:100430000C94FB0A0C940D050C94E90A0C942521EC
:100440000C9444080C9408210C9416050C94CF11BC
:100450000C9460060C94A1060C947A060C94D905B1
:100460004E414E494E495459494E46CDCCCC3D0A99
:10047000D7233C17B7D13877CC2B329595E6241F7C
:10048000B14F0A000020410000C84200401C462035
:10049000BCBE4CCA1B0E5AAEC59D7400407A10F308
:1004A0005A00A0724E18090010A5D4E80000E876A2
:1004B00048170000E40B54020000CA9A3B000000F9
:1004C000E1F505000080969800000040420F000012
:1004D00000A08601000000102700000000E80300D3
:1004E0000000006400000000000A0000000000019D
:1004F00000000000002C76D888DC674F0823DFC19D
:10050000DFAE59E1B1B796E5E3E453C63AE6519957
:100510007696E8E6C28426EB898C9B62ED407C6F80
:10052000FCEFBC9C9F40F2BAA56FA5F490055A2A37
:10053000F75C936B6CF9676DC11BFCE0E40D47FE43
:10054000F520E6B500D0ED902E0300943577050038
:1005500080841E080000204E0A000000C80C3333BF
:1005600033330F986E12831141EF8D2114893BE6CE
:100570005516CFFEE6DB18D1844B381BF77C1D9057
:100580001DA4BBE424203284725E228100C9F124C0
:10059000ECA1E53D2700002200250028002B002EBD
:1005A000003100340002010000050108010B0100C8
:1005B0000020002300260029002C002F003200001C
:1005C00001000003010601090100000A0B02090CE9
:1005D0000D0E0807030401000000000000000000E9
:1005E000000000000000000000000000000000000B
:1005F00000000000001211100000000000000000C8
:1006000000000000000000000000000000000000EA
:10061000002100240027002A002D003000330001B3
:10062000010000040107010A01010210202008084E
:100630001020401020408002010201080402010144
:10064000020408102040808040201008040201802D
:100650000402018040201008040201080402010184
:100660000204081020408001020408102040800588
:10067000050505070508080808020202020A0A081B
:100680000804040404010101010101010103030341
:100690000303030303040707070C0C0C0C0C0C0CDE
:1006A0000C0202020206060606060606060B0B0BE5
:1006B0000B0B0B0B0B001C4E325C11241FBECFEF3B
:1006C000D1E2DEBFCDBF00E00CBF18E0A0E0B2E099
:1006D000E2EEFEEC00E00BBF02C007900D92AE3AD6
:1006E000B107D9F724E1AEEAB8E001C01D92AB39F9
:1006F000B207E1F713E0CCE5D3E000E006C02197B4
:100700000109802FFE010E944966CB35D10780E0A8
:100710000807A9F70E946D500C945F670C940000C5
:100720009C01803E910508F048C5FC018827E456ED
:10073000FC4F8F4F0C9449667C04890492049B04FF
:10074000A804B104DD08DD08DD08DD08DD08BE040D
:10075000CB04D804DD08E504EE04F70404050D0518
:1007600016051F0528053105DD083A0543054C052A
:10077000DD08DD08DD0855055E056705DD08DD08D7
:1007800070057D05DD08DD08DD088A059705A405EF
:10079000B105BE05C705D005DD08DD08DD08D905B2
:1007A000E205EB05DD08F80505061206DD08DD08A3
:1007B000DD081F062C0639064606530660066D0640
:1007C000DD08DD08DD087A0687069406A106AE0678
:1007D000B706C006DD08DD08DD08E406F106FE0602
:1007E000DD080B0718072507DD08DD08DD083207DF
:1007F0003B074407DD08DD08DD08DD08DD08DD080E
:10080000DD084D0756075F07DD08680771077A079F
:10081000DD08DD08DD08830790079D07DD08AA07CE
:10082000B707C407DD08DD08DD08D107DE07EB07E1
:10083000DD08F80701080A08DD08DD08DD081308EF
:100840001C082508DD08DD08DD08DD08DD08DD08F9
:10085000DD08DD08DD08DD08DD08C906D206DB0697
:10086000DD08DD08DD08DD08DD08DD08DD08DD0860
:10087000DD08DD08DD08DD08DD08DD08DD08DD0850
:10088000DD08DD08DD08DD08DD08DD08DD08DD0840
:10089000DD08DD08DD08DD08DD08DD08DD08DD0830
:1008A000DD08DD08DD08DD08DD08DD08DD08DD0820
:1008B000DD08DD08DD08DD08DD08DD08DD08DD0810
:1008C000DD08DD08DD08DD08DD082E0837084408EE
:1008D000DD0851085A086708DD08DD08DD087408DE
:1008E0007D088A08DD089708A008AD08DD08DD0846
:1008F000DD08BA08C308D00881E090E0A0E0B0E0CD
:100900008093D2099093D309A093D409B093D509C9
:1009100008951092D6091092D7091092D809109212
:10092000D90908951092DA091092DB091092DC09B6
:100930001092DD09089581E090E0A0E0B0E080939E
:10094000DE099093DF09A093E009B093E1090895CF
:100950001092E2091092E3091092E4091092E5095D
:10096000089583E090E0A0E0B0E08093E6099093E2
:10097000E709A093E809B093E909089588E790E0B2
:10098000A0E0B0E08093FE099093FF09A093000AD5
:10099000B093010A089588E790E0A0E0B0E080936A
:1009A000020A9093030AA093040AB093050A0895DB
:1009B00088E790E0A0E0B0E08093060A9093070AF1
:1009C000A093080AB093090A089510920E0A109293
:1009D0000F0A1092100A1092110A08951092120A2A
:1009E0001092130A1092140A1092150A089581E0C9
:1009F00090E0A0E0B0E08093160A9093170AA093CD
:100A0000180AB093190A089510921A0A10921B0A34
:100A100010921C0A10921D0A089510921E0A10923C
:100A20001F0A1092200A1092210A08951092220A99
:100A30001092230A1092240A1092250A0895109207
:100A4000260A1092270A1092280A1092290A08955D
:100A500010922A0A10922B0A10922C0A10922D0A38
:100A6000089510922E0A10922F0A1092300A1092B6
:100A7000310A08951092360A1092370A1092380AF5
:100A80001092390A089510923A0A10923B0A109275
:100A90003C0A10923D0A089510923E0A10923F0AB5
:100AA0001092400A1092410A089510924E0A109234
:100AB0004F0A1092500A1092510A08951092520A49
:100AC0001092530A1092540A1092550A08951092E7
:100AD000560A1092570A1092580A1092590A08950D
:100AE00081E090E0A0E0B0E08093620A9093630A16
:100AF000A093640AB093650A089581E090E0A0E0B5
:100B0000B0E08093660A9093670AA093680AB09356
:100B1000690A08958CE291E0A0E0B0E08093760A43
:100B20009093770AA093780AB093790A08958CE29B
:100B300091E0A0E0B0E080937A0A90937B0AA093C2
:100B40007C0AB0937D0A08958CE291E0A0E0B0E0C9
:100B500080937E0A90937F0AA093800AB093810AC3
:100B600008958CE291E0A0E0B0E08093820A909337
:100B7000830AA093840AB093850A08951092860A86
:100B80001092870A1092880A1092890A089510928A
:100B90008A0A10928B0A10928C0A10928D0A08957C
:100BA00010928E0A10928F0A1092900A1092910A57
:100BB000089510929E0A10929F0A1092A00A109215
:100BC000A10A08951092A20A1092A30A1092A40AF0
:100BD0001092A50A089581E090E0A0E0B0E0809333
:100BE000A60A9093A70AA093A80AB093A90A089509
:100BF00085E090E0A0E0B0E08093AE0A9093AF0A69
:100C0000A093B00AB093B10A089585E090E0A0E007
:100C1000B0E08093B20A9093B30AA093B40AB09361
:100C2000B50A089589E190E0A0E0B0E08093B60AAB
:100C30009093B70AA093B80AB093B90A089582E3D3
:100C400090E0A0E0B0E08093C60A9093C70AA0931A
:100C5000C80AB093C90A089582E390E0A0E0B0E02A
:100C60008093CA0A9093CB0AA093CC0AB093CD0A82
:100C7000089582E390E0A0E0B0E08093CE0A9093E4
:100C8000CF0AA093D00AB093D10A089582E390E0EE
:100C9000A0E0B0E08093D20A9093D30AA093D40A44
:100CA000B093D50A089582E390E0A0E0B0E080938D
:100CB000D60A9093D70AA093D80AB093D90A089578
:100CC00082E390E0A0E0B0E08093DA0A9093DB0A40
:100CD000A093DC0AB093DD0A089582E390E0A0E0DF
:100CE000B0E08093DE0A9093DF0AA093E00AB0930D
:100CF000E10A089580E991E0A0E0B0E08093EE0A77
:100D00009093EF0AA093F00AB093F10A089580E956
:100D100091E0A0E0B0E08093F20A9093F30AA093F0
:100D2000F40AB093F50A089580E991E0A0E0B0E0FC
:100D30008093F60A9093F70AA093F80AB093F90A01
:100D4000089580E991E0A0E0B0E08093FA0A9093E2
:100D5000FB0AA093FC0AB093FD0A08951092FE0AC4
:100D60001092FF0A1092000B1092010B089510923E
:100D7000020B1092030B1092040B1092050B0895B6
:100D80001092060B1092070B1092080B1092090B91
:100D900008951092160C1092170C1092180C1092C5
:100DA000190C089510921A0C10921B0C10921C0C26
:100DB00010921D0C089510921E0C10921F0C109290
:100DC000200C1092210C089588E592E0A0E0B0E09C
:100DD0008093160B9093170BA093180BB093190BDD
:100DE000089588E592E0A0E0B0E080931A0B90931C
:100DF0001B0BA0931C0BB0931D0B089588E592E08C
:100E0000A0E0B0E080931E0B90931F0BA093200BEB
:100E1000B093210B08958EE190E0A0E0B0E08093C4
:100E2000260B9093270BA093280BB093290B0895C2
:100E30008EE190E0A0E0B0E080932A0B90932B0B22
:100E4000A0932C0BB0932D0B08958EE190E0A0E0C1
:100E5000B0E080932E0B90932F0BA093300BB093A8
:100E6000310B089510923E0B10923F0B1092400BE5
:100E70001092410B08951092420B1092430B109266
:100E8000440B1092450B08951092460B1092470B9D
:100E90001092480B1092490B08951092660B109215
:100EA000670B1092680B1092690B089510926A0BF1
:100EB00010926B0B10926C0B10926D0B08951092A8
:100EC0006E0B10926F0B1092700B1092710B0895B5
:100ED0001092760B1092770B1092780B1092790B80
:100EE000089510927A0B10927B0B10927C0B10924B
:100EF0007D0B089510927E0B10927F0B1092800B49
:100F00001092810B089585E090E0A0E0B0E080931E
:100F10008E0B90938F0BA093900BB093910B089531
:100F200085E090E0A0E0B0E08093920B9093930B6B
:100F3000A093940BB093950B089585E090E0A0E00A
:100F4000B0E08093960B9093970BA093980BB0937F
:100F5000990B089584EB95E1A0E0B0E080939E0B9F
:100F600090939F0BA093A00BB093A10B089584EBDB
:100F700095E1A0E0B0E08093A20B9093A30BA09327
:100F8000A40BB093A50B089584EB95E1A0E0B0E02D
:100F90008093A60B9093A70BA093A80BB093A90BDB
:100FA000089585E090E0A0E0B0E08093B60B9093C8
:100FB000B70BA093B80BB093B90B089585E090E000
:100FC000A0E0B0E08093BA0B9093BB0BA093BC0B56
:100FD000B093BD0B089585E090E0A0E0B0E0809371
:100FE000BE0B9093BF0BA093C00BB093C10B0895A1
:100FF0001092C60B1092C70B1092C80B1092C90B1F
:1010000008951092CA0B1092CB0B1092CC0B109239
:10101000CD0B08951092CE0B1092CF0B1092D00BE7
:101020001092D10B08951092DE0B1092DF0B1092EC
:10103000E00B1092E10B08951092E20B1092E30B7B
:101040001092E40B1092E50B08951092E60B1092AB
:10105000E70B1092E80B1092E90B08951092F60C32
:101060001092F70C1092F80C1092F90C08958CE382
:1010700090E0A0E0B0E08093FA0C9093FB0CA0937A
:10108000FC0CB093FD0C089581E090E0A0E0B0E08E
:101090008093FE0C9093FF0CA093000DB093010D74
:1010A00008951092060D1092070D1092080D1092DF
:1010B000090D08958CE390E0A0E0B0E080930A0D64
:1010C00090930B0DA0930C0DB0930D0D089581E03E
:1010D00090E0A0E0B0E080930E0D90930F0DA093F0
:1010E000100DB093110D089510921E0D10921F0D4A
:1010F0001092200D1092210D08958CE390E0A0E055
:10110000B0E08093220D9093230DA093240DB09313
:10111000250D089581E090E0A0E0B0E08093260DD9
:101120009093270DA093280DB093290D0895109248
:101130002E0D10922F0D1092300D1092310D08953A
:101140008CE390E0A0E0B0E08093320D9093330DFB
:10115000A093340DB093350D089581E090E0A0E0A8
:10116000B0E08093360D9093370DA093380DB09377
:10117000390D08951092460D1092470D1092480DAA
:101180001092490D08958CE390E0A0E0B0E08093C8
:101190004A0D90934B0DA0934C0DB0934D0D0895B7
:1011A00081E090E0A0E0B0E080934E0D90934F0D71
:1011B000A093500DB093510D0895220F331F220FAD
:1011C000331FF901EE52F64F108211821282138200
:1011D00008958E3591050CF046C08B359105A4F429
:1011E0008033910524F58932910574F48831910595
:1011F0008CF48F30910544F4863091053CF48230B4
:10120000910514F4892B89F481E008950B970397D5
:1012100060F4FACF823291052CF48F319105A4F756
:101220004997F5CF8497029778F380E00895843446
:1012300091055CF48D3391053CF783339105ACF354
:10124000863391050CF3C797E2CF8435910544F4BA
:1012500081359105CCF687549109079730F7D4CFA3
:1012600085559109D4CF8638910504F583389105C9
:101270005CF6823791056CF48F3691052CF6853635
:1012800091059CF2883691050CF4BECF89569109E0
:10129000BECF8C3791053CF4893791050CF0B4CF63
:1012A00083579109B4CF8D579109B1CF803D9105F6
:1012B0008CF48D3C91050CF0A7CF843991053CF45A
:1012C000813991050CF0A0CF8D589109A0CF895C90
:1012D00091099DCF8A3D91053CF4873D91050CF025
:1012E00093CF835D910993CF8D5D910990CFAF929C
:1012F000BF92CF92DF92EF92FF920F931F93CF9303
:10130000DF936C017B018B01040F151FEB015E0164
:10131000AE18BF08C017D10759F06991D601ED91F9
:10132000FC910190F081E02DC6011995892B79F788
:10133000C501DF91CF911F910F91FF90EF90DF904A
:10134000CF90BF90AF900895FC01538D448D252F11
:1013500030E0842F90E0821B930B541710F0CF964F
:10136000089501970895FC01918D828D981761F081
:10137000A28DAE0FBF2FB11D5D968C91928D9F5F98
:101380009F73928F90E008958FEF9FEF0895FC0177
:10139000918D828D981731F0828DE80FF11D858D2A
:1013A00090E008958FEF9FEF0895FC01918D228DBD
:1013B000892F90E0805C9F4F821B91098F73992742
:1013C000089587E59DE00E94D50921E0892B09F465
:1013D00020E0822F0895FC01A48DA80FB92FB11D24
:1013E000A35ABF4F2C91848D90E001968F7399275B
:1013F000848FA689B7892C93A089B1898C91837039
:1014000080648C93938D848D981306C00288F38931
:10141000E02D80818F7D80830895EF92FF920F935E
:101420001F93CF93DF93EC0181E0888F9B8D8C8D90
:1014300098131AC0E889F989808185FF15C09FB784
:10144000F894EE89FF896083E889F9898081837047
:10145000806480839FBF81E090E0DF91CF911F91F6
:101460000F91FF90EF900895F62E0B8D10E00F5F17
:101470001F4F0F731127E02E8C8D8E110CC00FB6ED
:1014800007FCFACFE889F989808185FFF5CFCE0185
:101490000E94EB09F1CFEB8DEC0FFD2FF11DE35A0C
:1014A000FF4FF0829FB7F8940B8FEA89FB89808108
:1014B0008062CFCF682F87E59DE00C940D0ACF9313
:1014C000DF93EC01888D8823B9F0AA89BB89E8896C
:1014D000F9898C9185FD03C0808186FD0DC00FB612
:1014E00007FCF7CF8C9185FFF2CF808185FFEDCF90
:1014F000CE010E94EB09E9CFDF91CF91089580E002
:1015000090E0892B29F00E94E10981110E940000DE
:1015100080E090E0892B49F080E090E0892B29F071
:101520000E94000081110E94000080E090E0892B61
:1015300049F080E090E0892B29F00E9400008111A1
:101540000E94000080E090E0892B49F080E090E06C
:10155000892B29F00E94000081110C94000008954D
:101560008150823108F05AC0E82FF0E08827E45417
:10157000F54F8F4F0C944966DC0AE00ACE0AD40A74
:10158000D80A0E0BE30AE90AED0AF30AF70AFB0A86
:10159000010B050B0E0B090B0F0B130B8091800039
:1015A0008F77809380000895809180008F7DF9CFA0
:1015B00080918000877FF5CF84B58F7784BD0895B3
:1015C00084B58F7DFBCF8091B0008F778093B00082
:1015D00008958091B0008F7DF9CF809190008F7732
:1015E000809390000895809190008F7DF9CF809135
:1015F0009000877FF5CF8091A0008F778093A00027
:1016000008958091A0008F7DF9CF8091A000877F01
:10161000F5CF809120018F778093200108958091EC
:1016200020018F7DF9CF80912001877FF5CFCF9367
:10163000DF93282F30E0F901E753FA4F8491F90145
:10164000E75DF94FD491F901E159F94FC491CC23E9
:10165000A1F081110E94B00AEC2FF0E0EE0FFF1F05
:10166000E155FA4FA591B491EC91ED2381E090E022
:1016700009F480E0DF91CF91089580E090E0FACF07
:101680001F93CF93DF93282F30E0F901E753FA4FF0
:101690008491F901E75DF94FD491F901E159F94FCE
:1016A000C491CC23A9F0162F81110E94B00AEC2F0F
:1016B000F0E0EE0FFF1FEB56FA4FA591B4918FB7F4
:1016C000F894EC91111108C0D095DE23DC938FBF04
:1016D000DF91CF911F910895DE2BF8CFCF93DF9349
:1016E00090E0FC01E75DF94F24918159994FFC018D
:1016F00084918823C9F090E0880F991FFC01E15F75
:10170000F94FA591B491FC01EB56FA4FC591D491D4
:1017100061110DC09FB7F8948C91209582238C9312
:101720008881282328839FBFDF91CF91089562305D
:1017300051F49FB7F8943C91822F809583238C932A
:10174000E8812E2BEFCF8FB7F894EC912E2B2C93B2
:101750008FBFEACFCF938CB58C608CBD8CB58F7D5D
:101760008CBD8CB58C7F8CBD8DB58E7F8DBDCFB77C
:10177000F8948091560D811127C0E4EAF6E0849137
:10178000EEE5F6E09491E82FF0E0EE0FFF1FE15F49
:10179000F94FA591B491EC91E92321F461E085E33F
:1017A0000E94400B61E085E30E946E0B8CB5806166
:1017B0008CBD8CB580648CBD61E084E30E946E0BAF
:1017C00061E083E30E946E0B8091560D8F5F8093E2
:1017D000560DCFBFCF9108958230910538F0880F14
:1017E000991F880F991F05970197F1F708953FB743
:1017F000F8948091C4089091C508A091C608B09152
:10180000C70826B5A89B05C02F3F19F00196A11D5A
:10181000B11D3FBFBA2FA92F982F8827BC01CD013A
:10182000620F711D811D911D42E0660F771F881F99
:10183000991F4A95D1F708958F929F92AF92BF92C8
:10184000CF92DF92EF92FF926B017C010E94F70B27
:101850004B015C01C114D104E104F104B9F00E9410
:10186000F70B681979098A099B09683E734081055D
:10187000910580F321E0C21AD108E108F10888EE51
:10188000880E83E0981EA11CB11CE4CFFF90EF905E
:10189000DF90CF90BF90AF909F908F9008952FB71B
:1018A000F8946091C0087091C1088091C20890912D
:1018B000C3082FBF0895CF92DF92EF92FF92CF938C
:1018C000DF93EC01603282E07807CCF5653B71056F
:1018D00014F064EB70E0898128E830E0281B3109BE
:1018E00087FD3395220F331F220F331F6901330FFA
:1018F000EE08FF088A8128E532E0281B310987FDC0
:101900003395220F331F220F331F032E000C440B7D
:10191000550B2C193D094E095F09DB0177FF02C009
:10192000B0E0A0E00E94C16424EB30E040E050E071
:101930000E949764C20ED31EE41EF51EB601E88114
:10194000E03370F5298188E890E0821B910927FD3A
:101950009395880F991F880F991F681779077CF056
:101960002A8188E592E0821B910927FD9395880FD3
:10197000991F880F991F681779070CF4CB010297FC
:10198000880F991F4FB7F8942E2F30E0F901EE0F12
:10199000FF1FE20FF31FEA50F24F928381834FBF84
:1019A000DF91CF91FF90EF90DF90CF9008951F933C
:1019B000CF93DF93EC01162F8881803308F04EC05F
:1019C00061E0812F0E946E0B8881282F30E0F901A1
:1019D000EE0FFF1FE20FF31FEA50F24F1F736081FB
:1019E000607C612B608319821A822CE0622F0E9436
:1019F0002966829FB001112430E020E0AB01420F44
:101A0000531FFA01EE0FFF1FE40FF51FEA50F24FCC
:101A1000908196FD16C02F5F3F4F2C30310571F736
:101A2000813009F51092800082E08093810010924D
:101A3000850010928400B19A80916F00826080933B
:101A40006F00E8818E2F90E0FC01EE0FFF1FE80F82
:101A5000F91FEA50F24F8081806480838881DF9192
:101A6000CF911F910895823061F41092900080937D
:101A70009100109295001092940088BB80937100A1
:101A8000E0CF833069F41092A00082E08093A1003F
:101A90001092A5001092A40089BB80937200D1CF50
:101AA0008111CFCF1092200182E08093210110920A
:101AB0002501109224018ABB80937300C2CFAF929C
:101AC000BF92CF92DF92EF92FF920F931F93CF932B
:101AD000DF936B017A01EC01C554D74F28813CE0BC
:101AE000389F8001399F100D1124A090860EB12CD3
:101AF00027FF1FC0FB011182108288818F5F8883BE
:101B000088819801280F311D87FD3A95F6012A1525
:101B10003B051CF488818C30C4F18081918104964E
:101B200080349C4908F473C0F60180819181049649
:101B300070C088819801280F311D87FD3A952A15BC
:101B40003B05DCF68881A801480F511D87FD5A9599
:101B5000FA01EE0FFF1FE40FF51FEA50F24F8081EC
:101B600086FFCBCF8881F801E80FF11D87FDFA953C
:101B7000CF01EE0FFF1FE80FF91FEA50F24F8081EF
:101B800060E08F730E94400BB8CF808191812881E3
:101B9000A801420F511D27FD5A959A01FA01EE0F37
:101BA000FF1FE20FF31FEA50F24F21813281820FB3
:101BB000931FF7019183808388819801280F311D3D
:101BC00087FD3A95F901EE0FFF1FE20FF31FEA5070
:101BD000F24F808186FF22C08881080F111D87FD8A
:101BE0001A95F801EE0FFF1FE00FF11FEA50F24FB8
:101BF000808161E08F73DF91CF911F910F91FF90F2
:101C0000EF90DF90CF90BF90AF900C94400B80E4AA
:101C10009CE9F701918380838FEF8883DF91CF91D7
:101C20001F910F91FF90EF90DF90CF90BF90AF90FA
:101C300008958EBD00000DB407FEFDCF8EB508954A
:101C4000DF92EF92FF920F931F93CF93DF93EC01FC
:101C5000D62E122F032FF42EE52E60E088850E94E9
:101C6000400B8D2D80680E94190E89878E2D0E9451
:101C7000190E8F2D0E94190E802F0E94190E812F90
:101C80000E94190E61E088850E94400B8985DF91D2
:101C9000CF911F910F91FF90EF90DF900895FF92E9
:101CA0000F931F93CF93DF93EC01F62E8A010E94CE
:101CB000AA0B60E088850E94400B8F2D0E94190EB0
:101CC000898780E00E94190E80E00E94190E80E052
:101CD0000E94190E80E00E94190E61E088850E9422
:101CE000400B60E088850E94400B8F2D0E94190EEA
:101CF000898780E00E94190E90E0B0E0A0E0BA2F42
:101D0000A92F982F8827F80180839183A283B3831A
:101D100080E00E94190EF801408151816281738137
:101D2000482B762F652F542F44274083518362839D
:101D3000738380E00E94190EF80140815181628115
:101D40007381482B762F652F542F4427408351836E
:101D50006283738380E00E94190EF80140815181F3
:101D600062817381482B408351836283738361E076
:101D700088850E94400B8985DF91CF911F910F913B
:101D8000FF9008952F923F924F925F927F928F9291
:101D90009F92AF92BF92CF92DF92EF92FF920F93FA
:101DA0001F93CF93DF9300D01F92CDB7DEB76C01A6
:101DB000762E49015A0117012801AE014F5F5F4F8E
:101DC0000E944F0E89819A81AB81BC818826992619
:101DD000AA26BB26A50194012E213321402355219B
:101DE000282739274A275B27672DC6010E94200E26
:101DF000F60181850F900F900F900F90DF91CF919A
:101E00001F910F91FF90EF90DF90CF90BF90AF9018
:101E10009F908F907F905F904F903F902F9008956C
:101E2000CF93DF93EC0161E088850E946E0B61E047
:101E300088850E94400B0E94AA0B60E088850E9462
:101E4000400B80E00E94190E898780E00E94190EE5
:101E500080E00E94190E80E00E94190E80E00E942E
:101E6000190E61E08885DF91CF910C94400B8F9221
:101E70009F92AF92BF92CF92DF92EF92FF920F9319
:101E80001F93CF93DF93EC018B015A0169010E94EC
:101E9000100F85E090E0A0E0B0E008301105C1F13E
:101EA000B4F487E090E0A0E0B0E00230110581F1E9
:101EB00086E090E0A0E0B0E00430110549F1013087
:101EC0001105A1F488E090E0A0E0B0E021C083E03B
:101ED00090E0A0E0B0E000321105D1F05CF484E0C5
:101EE00090E0A0E0B0E00031110591F080E090E0DA
:101EF000DC010EC082E090E0A0E0B0E0003411050B
:101F000039F081E090E0A0E0B0E00038110571F711
:101F1000582F442733272227E12CF12C00E01FE023
:101F20006CE6CE010E94C20EB50190E080E00E94F6
:101F30005F6325ED34E045E352E40E94C06320E096
:101F400030E04AE754E40E94676528EB3EE145E053
:101F50005EE30E94C0634B015C0126E636E646EA7A
:101F60005EE30E94676520E030E040E85FE30E94A6
:101F7000FA640E94E065603180F42CEE31E548E3BC
:101F80005EE3C501B4010E94676520E030E040E8EF
:101F90005FE30E94FA640E94E065862F8F71262F0E
:101FA00030E050E040E0542F432F322F22272227E9
:101FB0003F7144275527282B60E1CE010E94200E57
:101FC000E12CF12C8701E39421E030E040E050E087
:101FD00060E0CE010E94C20E1FE0E12EF12C00E075
:101FE00010E023E030E040E050E06CE6CE010E94DB
:101FF000C20E10E7E12EF12C00E010E020E430E00A
:1020000040E050E06CE6CE010E94C20E10E8E12EE6
:10201000F12C00E010E020E830E040E050E06CE619
:10202000CE010E94C20EE12C10E8F12E01E010E07A
:1020300020E030E041E050E06CE6CE010E94C20EAC
:10204000E12C10E4F12E00E010E020E030E0A901E6
:102050006CE6CE010E94C20E1FE0E12EF12C00E0E2
:1020600010E021E030E040E050E06CE6CE010E945C
:10207000C20EE12CF12C8701F39420E032E040E025
:1020800050E06CE6CE010E94C20EE12C10E2F12E6F
:1020900000E010E020E030E240E050E06CE6CE01ED
:1020A0000E94C20E2FEF3FEFA90163E1CE010E9413
:1020B000200E2FEF3FEF4FE050E064E1CE010E9491
:1020C000200E20E137E240E050E065E1CE010E94C1
:1020D000200EE12CF12C08E010E020E030E048E098
:1020E00050E06CE6CE010E94C20EE12CF12C04E01F
:1020F00010E020E030E044E050E06CE6CE010E94C9
:10210000C20E1FE0E12EF12C00E010E028E030E0EC
:1021100040E050E06CE6CE010E94C20EE12CF12CB2
:102120008701EA9424E630E040E050E06EE6CE011C
:102130000E94C20EE12CF12C0FEF13E020E030E002
:1021400048E050E06EE6CE010E94C20E20E137E288
:1021500040E050E065E1CE010E94200E10E2E12E49
:10216000F12C00E010E020E230E040E050E060E0E0
:10217000CE010E94C20EE12C18E0F12E00E010E02A
:1021800020E038E040E050E060E0CE010E94C20E66
:102190000D2C000CEE08FF08A60133272227E12CA6
:1021A000F12C01E010E06CE6CE010E94C20E64E664
:1021B00070E080E090E0DF91CF911F910F91FF9050
:1021C000EF90DF90CF90BF90AF909F908F900C9446
:1021D0001C0C0F931F93CF93DF938B01EA01AB018C
:1021E000415051094433510508F0ECC0223031050B
:1021F00008F0E8C048E3429FF001439FF00D11242E
:10220000E80FF91FE60FF71F81E080836C2F232B67
:1022100009F4D4C061E0802F0E946E0B209751F426
:1022200060E0802F0E94400BCE01DF91CF911F9183
:102230000F910895CF3FD10511F461E0BFC0F801BF
:10224000E753FA4FE491E150E23108F0B2C0F0E018
:102250008827E25DFE4E8F4F0C944966401147116E
:102260004C1156116011D9116A1172117A11841131
:102270008E119811A711B111D911BB11C511CF1130
:1022800084B5806884BDC7BDD0E0C0E0CDCF84B543
:10229000806284BDC8BDF8CF809180008068809343
:1022A0008000D0938900C0938800EECF8091800099
:1022B000806280938000D0938B00C0938A00E4CF2B
:1022C00080918000886080938000D0938D00C093BF
:1022D0008C00DACF8091B00080688093B000C0930A
:1022E000B300D2CF8091B00080628093B000C093E1
:1022F000B400CACF80919000806880939000D09302
:102300009900C0939800C0CF809190008062809324
:102310009000D0939B00C0939A00B6CF809190001C
:10232000886080939000D0939D00C0939C00ACCFB8
:102330008091A00080688093A0008091A0008F7B96
:102340008093A000D093A900C093A8009DCF809156
:10235000A00080628093A000D093AB00C093AA003D
:1023600093CF8091A00088608093A000D093AD00AF
:10237000C093AC0089CF80912001806880932001B8
:10238000D0932901C09328017FCF809120018062E2
:1023900080932001D0932B01C0932A0175CF8091A7
:1023A0002001886080932001D0932D01C0932C01DF
:1023B0006BCF60E0C038D1050CF03FCF802F0E947A
:1023C000400B62CFC1E0D0E02FCFCF93DF93D0E0BE
:1023D000C0E0CE010E94E908882319F0CE010E94D6
:1023E00090032196C13ED105A1F7DF91CF910895C9
:1023F000CF93DF93EC0188810E94170B21E0892B9A
:1024000009F420E02C878C810E94170B21E0892B96
:1024100009F420E02E878C8D9D8D0197E1F48A814F
:102420000E94170B21E0892B09F420E02D878E8173
:102430000E94170B21E0892B09F420E02F879C854F
:102440008D85981729F08E85281711F09A878B872C
:10245000DF91CF9108958C858A872B87F9CF0F93D1
:10246000FC019285908783858187A48DB58D119716
:1024700021F4621721F0401711F0628743878385AA
:10248000882381F0828591110FC0882359F08089BB
:102490009189A289B3890197A109B109808B918B98
:1024A000A28BB38B0F9108958111FCCF8089918904
:1024B000A289B3890196A11DB11DF0CF4F925F9201
:1024C0006F927F928F929F92AF92BF92CF92DF9244
:1024D000EF92FF92CF93DF93EC016C897D898E8917
:1024E0009F8988889988AA88BB88CE8CDF8C0D2C20
:1024F000000CEE08FF08603127E2720781059105A4
:1025000029F01616170618061906ACF0A701960151
:10251000C501B4010E941966DF91CF91FF90EF9041
:10252000DF90CF90BF90AF909F908F907F906F90F3
:102530005F904F9008950E94616320E030E44CE189
:1025400056E40E9467652B013C01488E598E6A8EC5
:102550007B8EC501B4010E946163A30192010E94B8
:10256000C0634B015C01C701B6010E9461639B011E
:10257000AC01C501B4010E94C0630E94D965CCCFF3
:10258000FC0111821082138212821582148217823A
:102590001682108611861286138614861586168674
:1025A0001786108A118A128A138A108E118E128E43
:1025B000138E158E148E178E168E10A211A212A2D3
:1025C00013A214A215A216A217A210A611A612A653
:1025D00013A614A615A681E090E097A786A780E130
:1025E00097E2A0E0B0E0848B958BA68BB78B089523
:1025F000EBE0F1E08081877F80830895EBE0F1E0FC
:1026000080818860808308958E9808958E9A0895B9
:1026100014980895149A089588980895889A0895AA
:1026200060E0FC01878D0C94400B60E0FC01818D23
:102630000C94400B61E0FC01878D0C94400B61E031
:10264000FC01818D0C94400BCF93DF93EC01FC01D6
:10265000EF56FF4F1082379781E0808360E0898DCD
:102660000E94400B8BA19CA1892B31F060E08F8DE3
:10267000DF91CF910C94400BDF91CF910895CF93D0
:10268000DF93EC018FA10E94170B2AA528171906CA
:1026900021F48BA5DF91CF91089580E0FBCFCF93FC
:1026A000DF93EC018DA10E94170B2AA528171906AC
:1026B00021F48BA5DF91CF91089580E0FBCFCF93DC
:1026C000DF93EC018B8DFE01E35BFF4F908161E0B6
:1026D000911101C060E00E94400B89A1FE01E25B04
:1026E000FF4F9081992331F0C15BDF4F988161E00A
:1026F000911101C060E0DF91CF910C94400BCF931A
:10270000DF93EC018B8DFE01E35BFF4F908160E076
:10271000911101C061E00E94400B89A1FE01E25BC2
:10272000FF4F9081992331F0C15BDF4F988160E0CA
:10273000911101C061E0DF91CF910C94400BCF93D8
:10274000DF93EC0161E08D8D0E94400BFE01E25BA6
:10275000FF4F8081882321F061E08BA10E94400B14
:10276000C157DF4F1882DF91CF910895CF93DF9348
:10277000EC0160E08D8D0E94400BFE01E25BFF4F9B
:102780008081882321F060E08BA10E94400BC1571B
:10279000DF4F81E08883DF91CF9108958F929F92E0
:1027A000AF92BF92CF92DF92EF92FF920F931F935F
:1027B000CF93FC01E65AFF4F4083518362837383BA
:1027C00034964083518362837383349600831183EC
:1027D00022833383DC01AA59BF4FEC925297CC91EC
:1027E000CC2351F018974C91411152C037FF56C07D
:1027F0001082118212821382DC01AB5ABF4F4D91BD
:102800005D916D917C9113971416150616061706A7
:1028100034F514963C91332311F1C080D180E280CD
:10282000F38046015701F7FE07C08824992454011C
:102830008C189D08AE08BF08481559056A057B0528
:1028400074F4F7FE07C070956095509541955F4F01
:102850006F4F7F4F4083518362837383C32FFC018B
:10286000ED58FF4F108211821282138289579F4FB9
:1028700031E0FC0130838C2FCF911F910F91FF909D
:10288000EF90DF90CF90BF90AF909F908F90089582
:1028900010161106120613060CF4AACFC0E0ACCF36
:1028A0000F931F93CF93DF93EC01062F89A581111E
:1028B0000FC0CE010E944F13182FCE010E943F136C
:1028C0000111182F812FDF91CF911F910F91089542
:1028D000CE010E943F13182FCE010E944F13F0CF5C
:1028E000CF93DF93EC01FC01ED57FF4F8081918185
:1028F000A281B3810196A11DB11D80839183A28322
:10290000B3833E9681E08083AE01425A5F4FFA0165
:1029100080819181A281B3819E0128573F4FF901A7
:102920002081222309F440C00196A11DB11DFA01A6
:1029300080839183A283B383FE01EC56FF4F2081F5
:102940003181C901959587958C0F9D1F3297019014
:10295000F081E02D20FF08C0DC012D913C91E20FB9
:10296000F31F0190F081E02D19958BA19CA1892B7B
:10297000F9F0FE01E856FF4F20813181C90195959C
:1029800087958C0F9D1FCA56DF4FE881F98120FF84
:1029900008C0DC012D913C91E20FF31F0190F08102
:1029A000E02DDF91CF9119940197A109B109BFCF13
:1029B000DF91CF9108958F929F92AF92BF92CF9265
:1029C000DF92EF92FF920F931F93CF93DF93EC016F
:1029D000FC01ED58FF4F60817181828193810E94DB
:1029E0005F636B017C01FE01E05BFF4F60817181E1
:1029F000828193810E9461639B01AC0160E074E27B
:102A000084E799E40E9467654B015C01FE01E1588F
:102A1000FF4F60817181828193810E945F639B017E
:102A2000AC01C501B4010E9467654B015C018E01D8
:102A300009581F4F20E030E040E05FE30E94C06390
:102A4000A70196010E94FB640E94E065F801608383
:102A5000718382839383C558DF4FA5019401C70119
:102A6000B6010E94FB640E94E065688379838A83D3
:102A70009B83DF91CF911F910F91FF90EF90DF909B
:102A8000CF90BF90AF909F908F9008950F931F931A
:102A9000CF93DF93FC01EF56FF4F20812223C9F033
:102AA0007E97008111812281338138964081518146
:102AB00062817381041715072607370728F1EC0197
:102AC0000E942413CE01DF91CF911F910F910C949E
:102AD000DB14FC01E957FF4F20812223A9F07497F2
:102AE000008111812281338134964081518162813C
:102AF0007381041715072607370730F0DF91CF9150
:102B00001F910F910C947014DF91CF911F910F9131
:102B10000895FC01E957FF4F2081222361F074974B
:102B200080819181A281B3810196A11DB11D808315
:102B30009183A283B38308950F931F93FC01EA59F5
:102B4000FF4F2081211113C038970081118122810C
:102B50003381349640815181628173810417150756
:102B60002607370754F41F910F910C947F13FC0133
:102B7000E45BFF4F20812111F6CF1F910F910C9440
:102B80005F13AC014B5E5F4F6FE6FC01808191816A
:102B90000C944F0ECF92DF92EF92FF920F931F9300
:102BA000CF93DF93EC017B016A0189019A01AB01AC
:102BB000B801888199810E94370F8C81883579F41A
:102BC0009601A701B8018A819B81DF91CF911F9166
:102BD0000F91FF90EF90DF90CF900C94370FDF9123
:102BE000CF911F910F91FF90EF90DF90CF900895BC
:102BF000CF93DF93EC018C818835B9F583E593E1C0
:102C00009983888383E893E19B838A838FE193E1AF
:102C1000FE01EE56FF4F918380833296118210821F
:102C20008AE193E1329691838083329611821082F9
:102C300085E193E1329691838083329611821082EE
:102C400080E193E1329691838083329611821082E3
:102C5000888199810E94100F8C81883591F48A8136
:102C60009B81DF91CF910C94100F893529F483E675
:102C700093E199838883CACF8A3541F683E793E14C
:102C8000F8CFDF91CF910895CF93DF93FC01DC0162
:102C900016968AE0ED0119928A95E9F781E0808B1A
:102CA000818B138A128A148A158A168A178A108EC3
:102CB0008CE291E0A0E0B0E084A795A7A6A7B7A713
:102CC00080AB91ABA2ABB3AB42E350E060E070E00D
:102CD00044AB55AB66AB77AB40AF51AF62AF73AFB0
:102CE00044AF55AF66AF77AFEF01C05CDF4F88836D
:102CF0009983AA83BB83249688839983AA83BB8301
:102D0000DF01A85BBF4F48E750E060E070E04D9303
:102D10005D936D937C93139714961C9211961C925D
:102D200011961C9211961C92119644E650E060E0B8
:102D300070E04D935D936D937C93139714961C9262
:102D400011961D921D921D921C92139714961C921F
:102D500011961D921D921D921C92139714961D920E
:102D60001D921D921C92139714961D921D921D92F6
:102D70001C92139714961C9211961D921D921D92EF
:102D80001C92139714961D921D921D921C921397DC
:102D900014961D921D921D921C92139714961D92CB
:102DA0001D921D921C92139714961D921D921D92B6
:102DB0001C92139714961D921D921D921C921397AC
:102DC00014961D921D921D921C92139714961D929B
:102DD0001D921D921C92139714961C9211961C9290
:102DE00011961C9211961C9211961C9211961C928F
:102DF00011961C9211961C9211961C9211961C927F
:102E000011961C92128E118E148E138E168E158EA4
:102E100010A2178E12A211A214A213A216A215A21A
:102E200010A617A211968FE193E111969C938E93B1
:102E3000129611961C921E9212968AE193E11196B7
:102E40009C938E93129611961C921E92129685E177
:102E500093E111969C938E93129611961C921E925A
:102E6000129680E193E18D939C93E056FF4F11827F
:102E70001082DF91CF9108954F925F926F927F926F
:102E80008F929F92AF92BF92CF92DF92EF92FF927A
:102E90000F931F93CF93DF93EC014B018A015901EC
:102EA000CD88DE88EF88F88C26013701442455242C
:102EB000662481E07822FE01ED57FF4F6081718129
:102EC0008281938124E630E040E050E00E94C964B2
:102ED000672B682B692BF1F48C859D859F878E87E6
:102EE0008A859B859D878C87888599859B878A871E
:102EF0008E819F8199878887F801608171818281A5
:102F000093810E94D9657F836E83F80110821182BC
:102F10001282138245284628472859F4F7FC09C035
:102F2000CC24DD24EE24FEE7FF22CD28CE28CF28B6
:102F300081F020E030E040E85FE3F80160817181DA
:102F4000828193810E94FB64F80160837183828394
:102F50009383C25ADF4F88819981AA81BB81F50191
:102F600080839183A283B38388819981AA81BB8165
:102F7000F401808B918BA28BB38BDF91CF911F914A
:102F80000F91FF90EF90DF90CF90BF90AF909F9008
:102F90008F907F906F905F904F900895CF93DF93C5
:102FA000EC01FC01EC55FC4F1082EE58F1098081D8
:102FB000811104C0CE0140960E949F13FE01E95E7C
:102FC000FC4F8081811105C0CE018E549F4F0E941D
:102FD0009F13FE01E85EFC4F8081811105C0CE0188
:102FE0008C5A9E4F0E949F1364E670E080E090E050
:102FF000DF91CF910C941C0C08958FEF9FEF0895F3
:1030000008950895089508950895089508950895D8
:1030100008950895089508950895089508950895C8
:10302000089508950895089508958091B80890919D
:10303000B908892B41F481E090E00E94D05D909323
:10304000B9088093B8088091B8089091B90808959C
:103050000F931F93CF93DF938B010E941518F801F4
:10306000C2A1D3A1868D978D8530910529F14CF4AD
:103070000497B1F090E080E0DF91CF911F910F9124
:1030800008958630910511F10B97A1F76BE070E080
:1030900080E99EE00E94D70CBE0180E99EE009C055
:1030A00064E070E087E89EE00E94D70CBE0187E8EC
:1030B0009EE00E945B0CDECF65E070E08AE89EE057
:1030C0000E94D70CBE018AE89EE0F3CF66E070E074
:1030D0008DE89EE00E94D70CBE018DE89EE0E9CF0E
:1030E0008091B4089091B508892B91F480E790E025
:1030F0000E94D05DFC0131969C012B5C3F4F1192E8
:1031000017AAE217F307D9F79093B5088093B4088C
:103110008091B4089091B50808954F925F926F9294
:103120007F92AF92BF92CF92DF92EF92FF920F9376
:103130001F93CF93DF93EB010E9470188C01CAA8F4
:10314000DBA84EA45FA468A879A8AEA0BFA0EE8CAF
:10315000FF8C4AA15BA19601B7010E94E910C3014F
:10316000B2010E941C0C9601A501B701C8010E9482
:10317000E91090E080E0DF91CF911F910F91FF90D7
:10318000EF90DF90CF90BF90AF907F906F905F9067
:103190004F900895CF93DF93EB010E9470186AA9B6
:1031A0008E8D0E946E0B90E080E0DF91CF910895AC
:1031B000CF93DF93EB010E9470182AA93BA94AA183
:1031C0005BA16E8D7F8D0E94E91090E080E0DF9121
:1031D000CF9108958091AE089091AF08892BE1F5C9
:1031E00085E390E00E94D05DFC0181E090E0A0E0EA
:1031F000B0E080839183A283B38384839583A68385
:10320000B78380879187A287B38715861486168631
:103210001786108A118A128A138A148A158A168AC6
:10322000178A108E118E138E128E12A213A214A260
:1032300015A217A216A210A611A612A613A614A6CE
:1032400015A616A617A610AA11AA12AA13AA14AA9E
:10325000F093AF08E093AE088091AE089091AF086C
:103260000895CF93DF930E94EA18EC0183E00E9457
:10327000170B21E0892B09F420E02C8F0E94EA181B
:10328000EC0182E00E94170B21E0892B09F420E079
:103290002D8F0E94EA18EC018EE00E94170B21E0AE
:1032A000892B09F420E02E8F0E94EA18EC018FE0B0
:1032B0000E94170B21E0892B09F420E02F8F0E9438
:1032C000EA18EC0182E10E94170B21E0892B09F436
:1032D00020E028A30E94EA18EC0183E10E94170B6A
:1032E00021E0892B09F420E029A3DF91CF910895F3
:1032F0000E94EA180C9431190E94EA18FC0114AAE1
:1033000090E080E00895FC0101900020E9F73197FA
:10331000AF01481B590BBC0187E59DE00C94770970
:103320008F929F92AF92BF920F931F93CF93DF9391
:10333000CDB7DEB7A1970FB6F894DEBF0FBECDBFF5
:1033400019A2423008F44AE08E010F5D1F4F842E0F
:10335000912CB12CA12CA50194010E94C964E62FE7
:10336000B901CA01EA30F4F4E05DD801EE938D01B1
:10337000232B242B252B79F790E080E0109719F070
:10338000CD010E948319A1960FB6F894DEBF0FBE3F
:10339000CDBFDF91CF911F910F91BF90AF909F90C4
:1033A0008F900895E95CE1CFCF92DF92EF92FF9288
:1033B000CF93DF9397FF19C06B017C018DE20E94D0
:1033C0005A0AEC0166277727CB016C197D098E0913
:1033D0009F094AE00E9490198C0F9D1FDF91CF91A9
:1033E000FF90EF90DF90CF9008954AE0DF91CF916A
:1033F000FF90EF90DF90CF900C949019BC01990F43
:10340000880B990B0C94D4190C948319882321F000
:1034100089E098E00C94041A82E098E0FBCF2F92A8
:103420003F924F925F926F927F928F929F92AF9254
:10343000BF92CF92DF92EF92FF920F931F93CF93A1
:10344000DF9300D000D01F921F92CDB7DEB71C01D2
:10345000FC01E557FF4F10823196108283579F4F32
:10346000FC011082D101A257BF4F1C9233961082EB
:1034700026013701441A550A660A770A49825A8298
:103480006B827C8277FE0CC0709460945094409460
:10349000411C511C611C711C49825A826B827C82C6
:1034A0004C155D056E057F0534F568017901C41A78
:1034B000D50AE60AF70A49805A806B807C807594A9
:1034C0006794579447944D825E826F82788681011B
:1034D00000571F4F49805A806B807C804C145D04DC
:1034E0006E047F0488F4F10164AC75AC81E08C93C8
:1034F000F801808327C0B901A8014C195D096E0944
:103500007F096A017B01D7CF4D805E806F80788410
:103510004C145D046E047F0408F4D9C04AA05BA07B
:103520006CA07DA04C145D046E047F040CF096C06A
:103530006E8C7F8C2FEF621A720A21E0FC012083CF
:10354000F8012083F1018489882309F46DC00E9469
:103550004F0CF10102891389012E000C220B330B51
:10356000601B710B820B930B693E734081059105C3
:1035700008F45AC00E944F0CF101738B628B86E9EC
:1035800093E00E94041A8AE993E00E94041A60E022
:1035900070E0CB010E94D41980EA93E00E94041AE3
:1035A000C701B6010E94D41986EA93E00E94041A6A
:1035B00069817A818B819C810E94D4198CEA93E085
:1035C0000E94041A4AE06D817E818F8198850E9455
:1035D000901983EB93E00E94041A6AA17BA18CA14D
:1035E0009DA10E94D41989EB93E00E94041AC501A1
:1035F000B4010E94D4198FEB93E00E94041A6E8DDF
:103600007F8D88A199A10E94D41985EC93E00E9436
:10361000041A8CE996E00E94041AC3010E94FE1964
:103620008DE798E00E94041AC30128960FB6F8941B
:10363000DEBF0FBECDBFDF91CF911F910F91FF90E5
:10364000EF90DF90CF90BF90AF909F908F907F9042
:103650006F905F904F903F902F900895C701B601F3
:103660000E9461632B013C016AA17BA18CA19DA1F9
:103670000E9461639B01AC01C301B2010E946765B6
:103680002B013C016E8D7F8D88A199A16819790964
:103690008A099B090E9461639B01AC01C301B201CD
:1036A0000E94C0632B013C01C501B4010E9461630B
:1036B0009B01AC01C301B2010E94FB640E94D96569
:1036C0003B0181E0F101E557FF4F808311CF8981F4
:1036D0009A81AB81BC814AA05BA06CA07DA08419BB
:1036E0009509A609B709C816D906EA06FB0654F4D7
:1036F0006E8C7F8C22E0620E711C81E0F101E35739
:10370000FF4FE3CF69817A818B819C816C197D09A0
:103710008E099F090E9461632B013C016AA17BA174
:103720008CA19DA10E9461639B01AC01C301B20108
:103730000E9467652B013C016E8D7F8D88A199A148
:10374000681979098A099B090E9461639B01AC0190
:10375000C301B2010E94C0632B013C01C501B40149
:103760000E9461639B01AC01C301B2010E94FB6432
:103770000E94D9653B0181E0F101E457FF4FA5CFDD
:103780002F923F924F925F926F927F928F929F9271
:10379000AF92BF92CF92DF92EF92FF920F931F935F
:1037A000CF93DF93EC013C012EE5620E711CD30137
:1037B0004D915D916D917C918C010E591F4FF801D7
:1037C00080819181A281B3812E01F6E64F0E511CBA
:1037D000F201F0809E0128573F4F5901B3961F0117
:1037E000FF20D1F12C533109F9012081F50120830B
:1037F00021E0F1012083411551056105710579F43E
:103800002081FE01E158FF4F222309F44DC088AC0E
:1038100099ACAAACBBAC80829182A282B3825E01D9
:10382000FAE5AF0EB11CF501C080D180E280F380D3
:10383000C816D906EA06FB06E4F5481759076A07D1
:103840007B070CF441C0D2018C9181113DC0FE0177
:10385000E957FF4F1082C3C021E0481759076A0794
:103860007B070CF020E0F50120836A017B0177FFE4
:1038700007C0CC24DD247601C41AD50AE60AF70A6B
:103880004C015D01B7FF07C0882499245401881AB0
:10389000990AAA0ABB0A21E0C814D904EA04FB0465
:1038A0000CF0A7CF20E0A5CF8CA89DA8AEA8BFA8FC
:1038B000B2CF8C159D05AE05BF052CF68417950774
:1038C000A607B7070CF0BFCFFE01E957FF4F808175
:1038D000882309F4BCCFF201808181110EC0D2018E
:1038E0008C918111B4CFD1016C9181E06827CE0118
:1038F0000E9450148111ABCF06C060E0CE010E943F
:1039000050148111ECCFF801C080D180E280F380A7
:10391000D3010D911D912D913C91F5014081518173
:1039200062817381D101EC91CE0181589F4F2C01AE
:10393000E1112BC08CA89DA8AEA8BFA8FE01E05C39
:10394000FF4F83818F9382818F9381818F93E08159
:10395000EF93EFA5EF93EEA5EF93EDA5EF93ECA515
:10396000EF93CE010E940F1AB0E0A0E0F201808335
:103970009183A283B3832DB73EB7285F3F4F0FB625
:10398000F8943EBF0FBE2DBF2AC088AC99ACAAAC3C
:10399000BBACFE01EC5BFF4F83818F9382818F93E1
:1039A00081818F93E081EF93EBA9EF93EAA9EF93E5
:1039B000E9A9EF93E8A9EF93CE010E940F1AB0E0B6
:1039C000A0E0F20180839183A283B3832DB73EB739
:1039D000285F3F4F0FB6F8943EBF0FBE2DBF60E08B
:1039E000CE010E945014882331F0D3011D921D9204
:1039F0001D921C921397DF91CF911F910F91FF9011
:103A0000EF90DF90CF90BF90AF909F908F907F907E
:103A10006F905F904F903F902F900895CF93DF93DA
:103A2000EC018BEC93E00E94041A6AA17BA18CA1AB
:103A30009DA10E94D4198DE798E0DF91CF910C945D
:103A4000041A0F931F93CF93DF938C01EB0188E748
:103A500093E00E94041A8CE996E00E94041AF8018F
:103A600084810E945A0ACE010E94FE190E94EA181F
:103A7000DF91CF911F910F910C940E1DEF92FF9249
:103A80000F931F93CF93DF93182F092F7B0161159D
:103A90007105B1F50E94170B31E020E0019709F0A4
:103AA00030E0C32FD22F82E0E816F10408F04EC0B8
:103AB0008EEC93E00E94041A8CE996E00E94041AAE
:103AC00082ED93E00E94041A812F902F0E94FE192C
:103AD0008CE996E00E94041A81E796E00E94041A9D
:103AE000CE010E94FE190E94EA180E940E1D90E06D
:103AF00080E0DF91CF911F910F91FF90EF9008959B
:103B0000D0E0C0E06130710571F6812F163310F0FE
:103B10008AEC810F20917B00982F9870277F922B41
:103B200090937B008770806480937C0080917A0002
:103B3000806480937A0080917A0086FDFCCF80912A
:103B40007800C0917900DC2FC82FADCF81E090E0E4
:103B5000D0CF0F931F93CF93DF93FC01208131814E
:103B600021153105D1F1EC01822F0E94170B21E0C4
:103B7000892B09F420E02B876A85261711F11E8214
:103B80001F82188619860E811F81288539858A81B2
:103B90009B81AC81BD81081719072A073B07ECF010
:103BA00081E0682788810E94400B0E94701870E0B5
:103BB00060E088819981DF91CF911F910F910C94E2
:103BC0003E1D8E819F81A885B9850196A11DB11DDD
:103BD0008E839F83A887B987D6CFDF91CF911F911E
:103BE0000F910895CF93DF93EB010E9470186AA99B
:103BF0007BA98E8D9F8D0E943E1D90E080E0DF911D
:103C0000CF910895CF92DF92EF92FF92CF93DF93FF
:103C1000EB01CB010E94E908882399F1FE01EE0F28
:103C2000FF1FEE0FFF1FEE52F64FC080D180E280E3
:103C3000F38084ED93E00E94041A8CE996E00E94E0
:103C4000041A82ED93E00E94041ACE010E94FE192C
:103C50008CE996E00E94041A81E796E00E94041A1B
:103C6000C701B6010E94D4190E94EA180E940E1DD5
:103C700090E080E0DF91CF91FF90EF90DF90CF90C8
:103C8000089588ED93E00E94041AF2CF0F931F93DA
:103C9000CF93DF938C01D0E0C0E0CE010E94E90811
:103CA000882321F0BE01C8010E94021E2196C13E58
:103CB000D10599F7DF91CF911F910F9108958AEF68
:103CC00093E00E94041A88E292E00E94041A88E0BD
:103CD00092E00E94041A8FE798E00E94041A0E9462
:103CE000EA180E940E1D90E080E00895CF93DF93C4
:103CF000EC018FEF93E00E94041A83E094E00E94AD
:103D0000041A8C8D0E94061A87E094E00E94041A1F
:103D10008D8D0E94061A8BE094E00E94041A8E8D0D
:103D20000E94061A8FE094E00E94041A8F8D0E9470
:103D3000061A83E194E00E94041A88A10E94061AE0
:103D400087E194E00E94041A89A10E94061ACE011C
:103D5000DF91CF910C940E1D0E94EA180C94761EF0
:103D60008BE194E00E94041A0E94EA180E94311923
:103D70000E94EA180E94761E0E94701870E060E0AF
:103D800088E090E00E943E1D0E94701870E060E0A4
:103D900089E090E00E943E1D0E94701870E060E093
:103DA0008AE090E00E943E1D0E94701870E060E082
:103DB0008DE090E00E943E1D90E080E008954F92DB
:103DC0005F926F927F928F929F92AF92BF92CF92AB
:103DD000DF92EF92FF920F931F93CF936B017C01C1
:103DE000742EAC019B010E941466882399F082E234
:103DF00094E0CF911F910F91FF90EF90DF90CF90C3
:103E0000BF90AF909F908F907F906F905F904F90FA
:103E10000C94831946015701E894B7F82FEF3FEF50
:103E20004FE75FE7C501B4010E94146681110DC020
:103E30002FEF3FEF4FE75FE7C501B4010E945A63E0
:103E400018161CF486E294E0D4CF2FEF3FEF4FE733
:103E50005FE4C701B6010E940F6618161CF48AE2DF
:103E600094E0C7CF2FEF3FEF4FE75FECC701B601FC
:103E70000E945A6387FDF3CF20E030E0A901C7011B
:103E8000B6010E945A6310E000E087FF08C08DE28F
:103E90000E945A0A8C01F7FAF094F7F8F094C0E007
:103EA00060E070E080E09FE37C1641F020E030E0CD
:103EB00040E251E40E946765CF5FF6CFA70196010B
:103EC0000E94FB642B013C010E94E0654B015C01F8
:103ED0004AE00E9490197C01E00EF11ECC23B1F162
:103EE000C501B4010E945F639B01AC01C301B20133
:103EF0000E94FA644B015C018EE20E945A0AE80EAD
:103F0000F91EC15018F120E030E040E251E4C50153
:103F1000B4010E94C0632B013C010E94E0654B018B
:103F2000B12CA12C4AE0C501B4010E949019E80E01
:103F3000F91EC501B4010E945F639B01AC01C3017E
:103F4000B2010E94FA644B015C01DBCFC701CF9143
:103F50001F910F91FF90EF90DF90CF90BF90AF90A7
:103F60009F908F907F906F905F904F9008958F9269
:103F70009F92AF92BF92CF92DF92EF92FF920F93F8
:103F80001F93CF93DF93EC0184E392E00E94041A25
:103F900083E494E00E94041A6E018AE0C81A8EEF4E
:103FA000D80AC6010E945E120E9461634B015C0147
:103FB000FE01E95CFC4F60817181828193810E94E6
:103FC00061639B01AC01C501B4010E94676542E0D9
:103FD0000E94DF1E83E594E00E94041A7E01EAED50
:103FE000EE1AEDEFFE0AC7010E945E120E946163A5
:103FF0004B015C01FE01E55CFC4F608171818281B7
:1040000093810E9461639B01AC01C501B4010E94D0
:10401000676542E00E94DF1E83E694E00E94041A76
:104020008E010A5A1D4FC8010E945E120E946163F0
:104030004B015C01C15CDC4F688179818A819B8185
:104040000E9461639B01AC01C501B4010E946765D8
:1040500042E00E94DF1E0E94EA180E940E1D80E3CB
:1040600092E00E94041A83E494E00E94041AF6018C
:10407000A68DB78D20893189428953890E94C164F8
:104080000E94D41983E594E00E94041AF701A68DDA
:10409000B78D20893189428953890E94C1640E9469
:1040A000D41983E694E00E94041AF801A68DB78D16
:1040B00020893189428953890E94C1640E94D419A0
:1040C0000E94EA18DF91CF911F910F91FF90EF901E
:1040D000DF90CF90BF90AF909F908F900C940E1D6B
:1040E000CF92DF92EF92FF92CF93DF93EC01888122
:1040F0009981AA81BB81181619061A061B0644F07D
:1041000081E090E0A0E0B0E088839983AA83BB833C
:104110008C819D81AE81BF81181619061A061B0677
:1041200044F081E090E0A0E0B0E08C839D83AE831A
:10413000BF8388859985AA85BB85181619061A0636
:104140001B0644F081E090E0A0E0B0E0888799870A
:10415000AA87BB878EE294E00E94041A83E494E06D
:104160000E94041A6E857F85888999890E946163FF
:104170006B017C01688179818A819B810E946163E6
:104180009B01AC01C701B6010E94676542E00E9435
:10419000DF1E83E594E00E94041A6A897B898C897A
:1041A0009D890E9461636B017C016C817D818E81A0
:1041B0009F810E9461639B01AC01C701B6010E940F
:1041C000676542E00E94DF1E83E694E00E94041AC5
:1041D0006E897F89888D998D0E9461636B017C0156
:1041E000688579858A859B850E9461639B01AC0106
:1041F000C701B6010E94676542E00E94DF1ECE0142
:10420000DF91CF91FF90EF90DF90CF900C940E1D37
:104210000E94EA180E94702090E080E00895FC015E
:1042200080819181009711F00C946C5E08950C943C
:104230006C5E0C946C5E0C946C5E0C946C5E0C94D6
:104240006C5E0C946C5E0C946C5E0C946C5E0C94C6
:104250006C5E0C946C5E0C946C5E0C946C5E0C94B6
:104260006C5E0C946C5E0C946C5E0C946C5E0C94A6
:104270006C5E0C946C5E0C946C5E0C946C5E0C9496
:104280006C5E0C946C5E0C946C5ECF92DF92EF923D
:10429000FF920F931F93CF93DF938C016A017B01F1
:1042A000EC01CC0FDD1F642FCE010E948964992799
:1042B000F7FC9A958F2D7E2D6D2DCE0101960E94D3
:1042C00089640D5811090330110588F4B701992745
:1042D00077FD9095892FCE0144960E9489646F2DB9
:1042E000772788279927CE0145960E94896490E018
:1042F00080E0DF91CF911F910F91FF90EF90DF90C1
:10430000CF9008954F925F926F927F928F929F927B
:10431000AF92BF92CF92DF92EF92FF920F931F93D3
:10432000CF93DF938C01EC01CC0FDD1FCE010E94F7
:104330008164882E912CB12CA12CCE0101960E9473
:104340008164C82ED12CF12CE12C0D5811090330B9
:10435000110508F05AC0CE0144960E948164482E8F
:10436000512C712C612CCE0145960E948164082F3E
:1043700010E030E020E08FEF481651046104710432
:1043800029F50F3F11052105310501F58FEF88163D
:104390009104A104B104C9F58FEFC816D104E1045A
:1043A000F10499F56FEF7FEFCB01DF91CF911F9172
:1043B0000F91FF90EF90DF90CF90BF90AF909F90C4
:1043C0008F907F906F905F904F9008950038110507
:1043D000210531053CF7FE2CED2CDC2CCC24C7014B
:1043E000B601680D791D8A1D9B1D32015524442498
:1043F000640D751D861D971D302F2227112700275C
:10440000600F711F821F931FD0CF00E010E0980152
:10441000412C512C320180E8C816D104E104F1048A
:10442000D4F2C0CFEF92FF920F931F93CF93DF93FD
:104430008091B2089091B308892B61F586E090E0F5
:104440000E94D05D7C0190E080E00E9482211616DF
:1044500017065CF1C7010E94E511D0E0C0E0CE0173
:104460000E94E908882371F0FE01EE0FFF1FEE0F96
:10447000FF1FEE52F64F4081518162817381CE0160
:104480000E9445212196C639D10549F7F092B3081B
:10449000E092B2088091B2089091B308DF91CF9179
:1044A0001F910F91FF90EF90089583E090E00E949C
:1044B0008221613071058105910541F502ED19E018
:1044C000D0E0C0E0CE010E94E9088823C1F0CE010F
:1044D0000E948221F80160837183828393836F3FFE
:1044E0007F4F8F4F9F4F59F4CE010E949003F801E8
:1044F0004081518162817381CE010E9445212196C4
:104500000C5F1F4FC13ED105E9F6C0CFC7010E9425
:10451000E511BCCFCF92DF92EF92FF920F931F93E2
:10452000CF93DF937C016B018A01E9010E94122283
:10453000F601EE0FFF1FEE0FFF1FEE52F64F8081C8
:104540009181F701918380830E941222000F111F35
:10455000000F111FF801EE52F64F81E040815181AA
:1045600062817381413051056105710509F080E078
:10457000F70182870E941222CC0FDD1FCC0FDD1FB6
:10458000CE52D64F88819981AA81BB81F70182835F
:104590009383A483B5831682178210861186DF91D8
:1045A000CF911F910F91FF90EF90DF90CF900895E2
:1045B000CF93DF93EC012AEC30E04BEC50E069EC58
:1045C00070E00E948A222EEC30E04FEC50E06DEC5F
:1045D00070E0CE010C960E948A2224ED30E045ED79
:1045E00050E063ED70E0CE0148960E948A2228EDEB
:1045F00030E049ED50E067ED70E0CE0184960E9416
:104600008A222EED30E04FED50E06DED70E0CE01EE
:10461000C096DF91CF910C948A22CF93DF93809143
:10462000B6089091B708892BA9F48CE390E00E941A
:10463000D05DEC01198218821D861C86198E188E99
:104640001DA21CA219AA18AA0E94D822D093B708AA
:10465000C093B6088091B6089091B708DF91CF91CA
:1046600008950F931F93CF93DF93EC010E941222C2
:10467000FE01E359FC4F80918E0B90918F0B91833B
:1046800080830E941222FE01E159FC4F8091920B1F
:104690009091930B918380830E941222FE01EF5828
:1046A000FC4F8091960B9091970B918380830E9491
:1046B00012228E010D581C4F6091B60B7091B70BF2
:1046C0008091B80B9091B90B0E946163F8016083EF
:1046D0007183828393830E9412220C5F1F4F60912B
:1046E000BA0B7091BB0B8091BC0B9091BD0B0E94DB
:1046F0006163F80160837183828393830E94122235
:104700000C5F1F4F6091BE0B7091BF0B8091C00B6F
:104710009091C10B0E946163F80160837183828371
:1047200093830E941222FE01EE57FC4F8091760B7C
:104730009091770B918380830E941222FE01EC57A7
:10474000FC4F80917A0B90917B0B918380830E9428
:104750001222FE01EA57FC4F80917E0B90917F0B55
:10476000918380830E941222FE01E857FC4F8091C2
:104770009E0B90919F0BA091A00BB091A10B8083F9
:104780009183A283B3830E941222FE01E457FC4F5F
:104790008091A20B9091A30BA091A40BB091A50BBB
:1047A00080839183A283B3830E941222FE01E0578B
:1047B000FC4F8091A60B9091A70BA091A80BB091F4
:1047C000A90B80839183A283B3830E941222FE01EE
:1047D000EC56FC4F8091C60B9091C70B9183808360
:1047E0000E941222FE01EA56FC4F8091CA0B909162
:1047F000CB0B918380830E941222FE01E856FC4F6E
:104800008091CE0B9091CF0B918380830E941222D6
:10481000FE01E656FC4F8091DE0B9091DF0B9183F9
:1048200080830E941222FE01E456FC4F8091E20B2D
:104830009091E30B918380830E941222FE01E25645
:10484000FC4F8091E60B9091E70B918380830E944F
:1048500012228091660B9091670BA091680BB0912A
:10486000690BFE01E158FC4F0197A105B10561F507
:1048700081E080830E94122280916A0B90916B0BE1
:10488000A0916C0BB0916D0BFE01E058FC4F0197AD
:10489000A105B105D9F481E080830E9412228091A4
:1048A0006E0B90916F0BA091700BB091710BCF5765
:1048B000DC4F0197A105B10559F481E08883DF91B0
:1048C000CF911F910F9108951082D4CF1082E5CF20
:1048D0001882F5CF2F923F924F925F926F927F9204
:1048E0008F929F92AF92BF92CF92DF92EF92FF9200
:1048F0000F931F93CF93DF93CDB7DEB76F970FB6AC
:10490000F894DEBF0FBECDBF9B8F8A8F0E9412220C
:10491000EA8DFB8DEF55FD4F81E040919E0A50914D
:104920009F0A6091A00A7091A10A452B462B472B44
:1049300009F480E080830E941222EA8DFB8DEE55FF
:10494000FD4F81E04091A20A5091A30A6091A40A10
:104950007091A50A452B462B472B09F480E08083F4
:104960000E941222EA8DFB8DED55FD4F81E04091B2
:10497000A60A5091A70A6091A80A7091A90A452B2E
:10498000462B472B09F480E080830E9412228091FD
:10499000EE0A9091EF0AA091F00AB091F10AEA8D27
:1049A000FB8DEC55FD4F80839183A283B3830E94DE
:1049B00012228091F20A9091F30AA091F40AB09128
:1049C000F50AEA8DFB8DE855FD4F80839183A28324
:1049D000B3830E9412228091F60A9091F70AA09167
:1049E000F80AB091F90AEA8DFB8DE455FD4F8083FA
:1049F0009183A283B3830E9412228091EE0A909148
:104A0000EF0AA091F00AB091F10AEA8DFB8DE05512
:104A1000FD4F80839183A283B3830E9412228091F1
:104A2000F20A9091F30AA091F40AB091F50AEA8D86
:104A3000FB8DEC54FD4F80839183A283B3830E944E
:104A400012228091FA0A9091FB0AA091FC0AB0917F
:104A5000FD0AEA8DFB8DE854FD4F80839183A2838C
:104A6000B3830E9412228091C60A9091C70AA09136
:104A7000C80AB091C90AEA8DFB8DE853FD4F8083C7
:104A80009183A283B3830E9412228091CA0A9091DB
:104A9000CB0AA091CC0AB091CD0AEA8DFB8DE453EC
:104AA000FD4F80839183A283B3830E941222809161
:104AB000CE0A9091CF0AA091D00AB091D10AEA8D86
:104AC000FB8DE053FD4F80839183A283B3830E94CB
:104AD00012228091C60A9091C70AA091C80AB0918B
:104AE000C90AEA8DFB8DEC52FD4F80839183A2832E
:104AF000B3830E9412228091CA0A9091CB0AA0919E
:104B0000CC0AB091CD0AEA8DFB8DE852FD4F80832F
:104B10009183A283B3830E9412228091D20A909142
:104B2000D30AA091D40AB091D50AEA8DFB8DE45244
:104B3000FD4F80839183A283B3830E9412228091D0
:104B4000D60A9091D70AA091D80AB091D90AEA8DD5
:104B5000FB8DE052FD4F80839183A283B3830E943B
:104B600012228091DA0A9091DB0AA091DC0AB091BE
:104B7000DD0AEA8DFB8DEC51FD4F80839183A2838A
:104B8000B3830E9412228091DE0A9091DF0AA091E5
:104B9000E00AB091E10AEA8DFB8DE851FD4F808378
:104BA0009183A283B3830E9412228091760A90910E
:104BB000770AA091780AB091790AEA8DFB8DE451C9
:104BC000FD4F80839183A283B3830E941222809140
:104BD0007A0A90917B0AA0917C0AB0917D0AEA8DB5
:104BE000FB8DE051FD4F80839183A283B3830E94AC
:104BF000122280917E0A90917F0AA091800AB09142
:104C0000810AEA8DFB8DEC50FD4F80839183A28356
:104C1000B3830E9412228091760A9091770AA09124
:104C2000780AB091790AEA8DFB8DE850FD4F8083B8
:104C30009183A283B3830E94122280917A0A909179
:104C40007B0AA0917C0AB0917D0AEA8DFB8DE4502D
:104C5000FD4F80839183A283B3830E9412228091AF
:104C6000820A9091830AA091840AB091850AEA8D04
:104C7000FB8DFD5F80839183A283B3830E94122208
:104C8000EA8DFB8DEC5FFC4F81E020914E0A309164
:104C90004F0A2130310509F080E080830E94122202
:104CA000EA8DFB8DEB5FFC4F81E02091520A309141
:104CB000530A2130310509F080E080830E941222DE
:104CC000EA8DFB8DEA5FFC4F81E02091560A30911E
:104CD000570A2130310509F080E080830E941222BA
:104CE000EA8DFB8DEE5DFC4F81E04091260A5091EC
:104CF000270A6091280A7091290A452B462B472BD9
:104D000009F480E080830E941222EA8DFB8DED5D24
:104D1000FC4F81E040912A0A50912B0A60912C0AA5
:104D200070912D0A452B462B472B09F480E0808398
:104D30000E941222EA8DFB8DEC5DFC4F81E04091D8
:104D40002E0A50912F0A6091300A7091310A452B3A
:104D5000462B472B09F480E080830E941222EA8DC3
:104D6000FB8DEB5DFC4F81E04091FE0A5091FF0A04
:104D70006091000B7091010B452B462B472B09F4DA
:104D800080E080830E941222EA8DFB8DEA5DFC4F59
:104D900081E04091020B5091030B6091040B7091E4
:104DA000050B452B462B472B09F480E080830E949E
:104DB0001222EA8DFB8DE95DFC4F81E04091060BEC
:104DC0005091070B6091080B7091090B452B462BF6
:104DD000472B09F480E080830E941222EA8DFB8D2C
:104DE000E85DFC4F81E02091360A3091370A21308E
:104DF000310509F080E080830E941222EA8DFB8D4C
:104E0000E75DFC4F81E020913A0A30913B0A213066
:104E1000310509F080E080830E941222EA8DFB8D2B
:104E2000E65DFC4F81E020913E0A30913F0A21303F
:104E3000310509F080E080830E9412228091FE09F2
:104E40009091FF09A091000AB091010AEA8DFB8DB3
:104E5000E55DFC4F80839183A283B3830E9412227D
:104E60008091020A9091030AA091040AB091050A68
:104E7000EA8DFB8DE15DFC4F80839183A283B38338
:104E80000E9412228091060A9091070AA091080AB6
:104E9000B091090AEA8DFB8DED5CFC4F8083918314
:104EA000A283B3830E941222EA8DFB8DEA5EFC4F3F
:104EB00081E040910E0A50910F0A6091100A7091A2
:104EC000110A452B462B472B09F480E080830E9472
:104ED0001222EA8DFB8DE95EFC4F81E04091120ABF
:104EE0005091130A6091140A7091150A452B462BB4
:104EF000472B09F480E080830E941222EA8DFB8D0B
:104F0000E85EFC4F81E04091160A5091170A6091CB
:104F1000180A7091190A452B462B472B09F480E09B
:104F200080830E9412228091060C9091070CA09120
:104F3000080CB091090CEA8DFB8DE95FFC4F808372
:104F40009183A283B3830E94122280910A0C9091D4
:104F50000B0CA0910C0CB0910D0CEA8DFB8DE55F54
:104F6000FC4F80839183A283B3830E94122280919D
:104F70000E0C90910F0CA091100CB091110CEA8DB9
:104F8000FB8DE15FFC4F80839183A283B3830E94FA
:104F90001222EA8DFB8DE75EFC4F81E02091660ACC
:104FA0003091670A2130310509F080E08083EA8D75
:104FB000FB8DE65EFC4F1082EA8DFB8DE55EFC4FBB
:104FC00010820E941222EA8DFB8DE45EFC4F81E08C
:104FD0002091620A3091630A2130310509F080E0A6
:104FE0008083EA8DFB8DE35EFC4F1082EA8DFB8DA2
:104FF000E25EFC4F10820E941222EA8DFB8DE15E80
:10500000FC4F81E02091860A3091870A21303105DA
:1050100009F080E080830E941222EA8DFB8DE05E21
:10502000FC4F81E020918A0A30918B0A21303105B2
:1050300009F080E080830E941222EA8DFB8DEF5DF3
:10504000FC4F81E020918E0A30918F0A213031058A
:1050500009F080E080830E941222EA8DFB8DED5ED4
:10506000FC4F81E02091160C3091170C2130310556
:1050700009F080E080830E941222EA8DFB8DEC5EB5
:10508000FC4F81E020911A0C30911B0C213031052E
:1050900009F080E080830E941222EA8DFB8DEB5E96
:1050A000FC4F81E020911E0C30911F0C2130310506
:1050B00009F080E080830E9412220A8D1B8D095C1A
:1050C0001C4F8091AE0A9091AF0AA091B00AB091A6
:1050D000B10AF80180839183A283B3830E941222D4
:1050E000EA8CFB8CF5ECEF1AFCEFFF0A8091B20A18
:1050F0009091B30AA091B40AB091B50AF7018083E8
:105100009183A283B3830E9412228091B60A909168
:10511000B70AA091B80AB091B90ACA8CDB8CF1EC3D
:10512000CF1AFCEFDF0AF60180839183A283B38359
:10513000F8014081518162817381141615061606AB
:10514000170644F041E050E060E070E04083518396
:1051500062837383F70140815181628173811416E8
:1051600015061606170644F041E050E060E070E0D6
:105170004083518362837383181619061A061B062F
:105180004CF081E090E0A0E0B0E0F60180839183F4
:10519000A283B3830E94EA18FC01D6018D909D90F2
:1051A000AD90BC90D7014D915D916D917C91D801EE
:1051B0000D911D912D913C910083118322833383A6
:1051C000448355836683778380869186A286B386DF
:1051D000EA8DFB8D7096FA83E983EA8DFB8DED5E97
:1051E000FC4F80808B82EA8DFB8DE95FFC4F408015
:1051F000518062807380EA8DFB8DE15EFC4F908070
:105200009A86EA8DFB8DE85DFC4FA080AC82EA8D2A
:10521000FB8DE75EFC4FB080BD82EA8DFB8DE45EC6
:10522000FC4F20812E83EA8DFB8DEB5DFC4F80814E
:105230008E87EA8DFB8DEE5DFC4F90819A8BEA8D17
:10524000FB8DEC5FFC4F2080EA8DFB8DEF55FD4F11
:105250003080EA8DFB8DE55DFC4F80809180A280DF
:10526000B380EA8DFB8DE451FD4F80819181A28155
:10527000B381EA8DFB8DE052FD4FC080D180E2808A
:10528000F380EA8DFB8DE853FD4F408151816281AF
:105290007381EA8DFB8DEC55FD4F008111812281D8
:1052A0003381EA8DFB8D04AF15AF26AF37AFEC5BD2
:1052B000FF4F4083518362837383EA8DFB8DE05BF4
:1052C000FF4F80839183A283B383EA8DFB8DE05CE3
:1052D000FF4F0083118322833383EA8DFB8DE85BCC
:1052E000FF4F4083518362837383EA8DFB8DEC5AB9
:1052F000FF4F80839183A283B383EA8DFB8DE45BB0
:10530000FF4FC082D182E282F382EA8DFB8DE85AA0
:10531000FF4F80829182A282B382EA8DFB8DE45A94
:10532000FF4F3082EA8DFB8DE35AFF4F2082EA89DE
:10533000AA8DBB8DD996EC93D997FE85DA96FC930E
:10534000DA978C80DB968C9280E490E0A0E0B0E06D
:10535000EA8DFB8DE05AFF4F80839183A283B38354
:10536000EA8DFB8DE25AFF4F9E809082EA8DFB8D85
:10537000E15AFF4FAD80A082EA8DFB8DEC59FF4FC3
:10538000BA84B082EA8DFB8DEB59FF4F4082518287
:1053900062827382EA8DFB8DE759FF4F2B81208358
:1053A000AA8DBB8D99968D919C919A978633910584
:1053B00009F0E6C28EE093E1FD01EE55FF4F9183C7
:1053C00080833296118210828CE093E1369691832D
:1053D0008083329611821082EA8DFB8D87A590A979
:1053E0004A97D1F48AE093E1EA55FF4F9183808395
:1053F000EA8DFB8DE855FF4F1182108288E093E122
:10540000EA8DFB8DE255FF4F91838083EA8DFB8D02
:10541000E055FF4F118210820A8D1B8D0E541F4FD5
:10542000EA8DFB8DEC5EFC4F80808B82EA8DFB8DDC
:10543000E55FFC4F80819181A281B3818A879B8740
:10544000AC87BD87EA8DFB8DE05EFC4F90819C832D
:10545000EA8DFB8DE75DFC4FA081AD83EA8DFB8D6E
:10546000E65EFC4FB081BE83EA8DFB8DE35EFC4FB0
:1054700080808E86EA8DFB8DEA5DFC4F2080EA8D70
:10548000FB8DED5DFC4F3080EA8DFB8DEB5FFC4FBB
:105490003081EA8DFB8DEE55FD4F2081EA8DFB8D2D
:1054A000E15DFC4F4081518162817381EA8DFB8D0A
:1054B000E051FD4F80819181A281B381EA8DFB8D06
:1054C000EC51FD4FC080D180E280F380EA8DFB8DEE
:1054D000E453FD4F80809180A280B380EA8DFB8DE4
:1054E000E855FD4F4080518062807380F80144A6EA
:1054F00055A666A677A684AA95AAA6AAB7AAEA8DF3
:10550000FB8DEE50FF4F80839183A283B383F8011C
:1055100040AA51AA62AA73AA80AE91AEA2AEB3AE5F
:10552000EA8DFB8DEA50FF4F80839183A283B38382
:10553000D801DC96CD92DD92ED92FC92DF97EA8D58
:10554000FB8DE650FF4F4083518362837383EA8D66
:10555000FB8DE250FF4F2083EA8DFB8DE150FF4F22
:10556000308399963C9299979A962C929A97ED81CE
:105570009B96EC9380E490E0A0E0B0E0EA8DFB8D98
:10558000EE5FFE4F80839183A283B383EA8DFB8D10
:10559000F3958E848082EA8DFB8DEF5FFE4F9E80B7
:1055A0009082EA8DFB8DEA5FFE4FAC80A082EA8D8F
:1055B000FB8DE95FFE4F8A859B85AC85BD85808329
:1055C0009183A283B383EA8DFB8DE55FFE4F9B81C0
:1055D0009083D80159968D919C918633910509F05D
:1055E00001C28EE093E1EA8DFB8DEC5BFE4F91836F
:1055F0008083EA8DFB8DEA5BFE4F118210828CE086
:1056000093E1EA8DFB8DE45BFE4F91838083EA8D0D
:10561000FB8DE25BFE4F11821082F801878D90A115
:105620004A97E1F48AE093E1EA8DFB8DE85BFE4F57
:1056300091838083EA8DFB8DE65BFE4F11821082A1
:1056400088E093E1EA8DFB8DE05BFE4F91838083E0
:10565000EA8DFB8DEE5AFE4F11821082EA8CFB8C94
:10566000FCEAEF1AFEEFFF0AEA8DFB8DEB5EFC4FC2
:1056700080808B82EA8DFB8DE15FFC4F8081918180
:10568000A281B3818A879B87AC87BD87EA8DFB8D1A
:10569000EF5DFC4F90819C83EA8DFB8DE65DFC4FB6
:1056A0003080EA8DFB8DE55EFC4FA081AD83EA8DF5
:1056B000FB8DE25EFC4F2080EA8DFB8DE95DFC4FA7
:1056C000C080EA8DFB8DEC5DFC4FD080EA8DFB8DB8
:1056D000EA5FFC4F3081EA8DFB8DED55FD4F208157
:1056E000EA8DFB8DED5CFC4F80809180A280B380C1
:1056F0008E829F82A886B986EA8DFB8DFD5F8081B0
:105700009181A281B3818E879F87A88BB98BEA8D07
:10571000FB8DEC50FD4F80809180A280B3808C8EF9
:105720009D8EAE8EBF8EEA8DFB8DE851FD4F808140
:105730009181A281B3818A8B9B8BAC8BBD8BEA8DCF
:10574000FB8DE452FD4F80819181A281B381EA8D6E
:10575000FB8DE053FD4F4080518062807380EA8D65
:10576000FB8DE854FD4F4081518162817381EA8D48
:10577000FB8DE455FD4F80809180A280B380F701BE
:1057800084A695A6A6A6B7A644AA55AA66AA77AAED
:10579000EA8DFB8DEC56FE4F8C8C9D8CAE8CBF8CB5
:1057A00080829182A282B382F70140AB51AB62AB9F
:1057B00073AB80AF91AFA2AFB3AFEA8DFB8DE8566C
:1057C000FE4F8E849F84A888B98880829182A282AD
:1057D000B3828A899B89AC89BD89F70184AF95AF73
:1057E000A6AFB7AFEA8DFB8DE456FE4F8E809F804B
:1057F000A884B98480829182A282B382EA8DFB8DD3
:10580000E056FE4F2083EA8DFB8DEF55FE4F30832F
:10581000D7019996DC9299979A96CC929A979B96F3
:105820003C9280E490E0A0E0B0E0EA8DFB8DEC5586
:10583000FE4F80839183A283B383EA8DFB8DEE5567
:10584000FE4F2082EA8DFB8DED55FE4FBD81B0836A
:10585000EA8DFB8DE855FE4F8C808082EA8DFB8DB2
:10586000E755FE4F8A859B85AC85BD8580839183F6
:10587000A283B383EA8DFB8DE355FE4F9B8190831A
:10588000D70159968D919C918633910509F0D2C02C
:105890008EE093E1EA8DFB8DEA51FE4F9183808388
:1058A000EA8DFB8DE851FE4F118210828CE093E16E
:1058B000EA8DFB8DE251FE4F91838083EA8DFB8D53
:1058C000E051FE4F11821082F701878D90A14A9717
:1058D000E1F48AE093E1EA8DFB8DE651FE4F91837E
:1058E0008083EA8DFB8DE451FE4F1182108288E0A7
:1058F00093E1EA8DFB8DEE50FE4F91838083EA8D1C
:10590000FB8DEC50FE4F11821082EA8DFB8DEA5E1A
:10591000FC4F8081882309F4B5C089819A810E9457
:10592000B613EA8DFB8DE95EFC4F8081882309F474
:10593000AEC0C8010E94B6138A8D9B8D885E9C4FB5
:10594000DC018C91882309F4A6C0C7016F960FB6BD
:10595000F894DEBF0FBECDBFDF91CF911F910F91A5
:10596000FF90EF90DF90CF90BF90AF909F908F907F
:105970007F906F905F904F903F902F900C94B61354
:105980008C339105D9F486E093E1EA8DFB8DEE55D9
:10599000FF4F91838083EA8DFB8DEC55FF4F118281
:1059A000108284E093E1EA8DFB8DE655FF4F9183F1
:1059B0008083EA8DFB8DE455FF4F0CCD8E9709F067
:1059C0000BCD8EEF92E1EA8DFB8DEE55FF4F91836B
:1059D0008083EA8DFB8DEC55FF4F1182108288EF9A
:1059E00092E1E1CF8C33910589F486E093E1EA8D71
:1059F000FB8DEC5BFE4F91838083EA8DFB8DEA5B30
:105A0000FE4F1182108284E093E1FBCD8E9709F066
:105A100004CE8EEF92E1EA8DFB8DEC5BFE4F91831D
:105A20008083EA8DFB8DEA5BFE4F1182108288EF46
:105A300092E1E7CD8C33910589F486E093E1EA8D1C
:105A4000FB8DEA51FE4F91838083EA8DFB8DE851F7
:105A5000FE4F1182108284E093E12ACF8E9709F0E5
:105A600033CF8EEF92E1EA8DFB8DEA51FE4F9183A9
:105A70008083EA8DFB8DE851FE4F1182108288EF02
:105A800092E116CF89819A810E949F134ACFC80163
:105A90000E949F1351CFC7016F960FB6F894DEBFD7
:105AA0000FBECDBFDF91CF911F910F91FF90EF906F
:105AB000DF90CF90BF90AF909F908F907F906F902E
:105AC0005F904F903F902F900C949F13AF92BF9296
:105AD000CF92DF92EF92FF920F931F93CF93DF93BA
